S0030000FC
S50300F804
S11301007E013F00FF01FF010001010001FF01FF2B
S113011000FFFF2E2A4B42067903F5093609ED0646
S11301205A0C8303D503C90B130AEB7EE07E7EE0F1
S11301306B7EE06786207E01397EE1D17EE1AC8E64
S1130140A04286FFB7A00C860CC655B71072F710F4
S1130150734FB71071B71074CE0CC4BD0507CE0031
S1130160204FA700088C00C526F8CE0CD7BD050784
S1130170BD1075BD013984DF815327037C0055CE42
S11301800071C640BD104F81FC23048604201981F0
S1130190F723048603201181E023048602200981C9
S11301A0A02304860120014F7F00567D00552716A9
S11301B09756BD104F81F023048603200981C02384
S11301C004860220014F9B56A7009B549754BD10F0
S11301D04F8438AA00A700085A27037E0184BD1063
S11301E04F840716BD104F84079721D7227C002027
S11301F0CE0071BD052D8640AA00A7008D28BD1034
S11302004F8B00199738BD104F847F8A108B0019CB
S113021097378D317D00552709168D298000373396
S11302201B199739202A7F005786309758973C7FAF
S113023000597F003D860F9746CE00616F00088C01
S1130240006726F839BD104F840F8A308B001939A6
S1130250BD104F84079747BD104F84079748BD05CD
S113026017CE0CE5BD050796218D4EBD030F9622D2
S11302708D47CE0EBDBD0507CE006DC603BD013C46
S1130280A700085A26F7CE0D07BD05078D30CE0D01
S113029010BD05078D39CE0D1BBD05077F003196B6
S11302A0399732BD039ECE0D23BD05078D4DCE0D6E
S11302B02EBD05078D4F7E03148B317E0139DE3749
S11302C0DF31BD039E862EBD013996287E012E9610
S11302D0547F00317F0032C60A373310250C7C006E
S11302E032D13226F47C003120EA37331BD632581F
S11302F058585837331B97327E039E96478DBA8DD4
S11303000E964820B496498DB08D04964A20AA864C
S11303102D7E01399639913B22037E0BB07D00542A
S113032026037E0BB57D00672709CE0FF4BD0507B4
S11303307E0B01BD0BE38602914E27487F004E7D64
S1130340002627034A974EBD104F81FC230DCE0F84
S11303505DBD0507860297667E03C9BD104F81FC0B
S113036023037E0C1BBD0B5E7D00582A037E0BA865
S1130370860391582302974E7D003C2A074F9757D6
S1130380973C973DCE0D37BD05077F00297F007050
S1130390BD08BF48CE0117BD10A5EE006E007F005A
S11303A04D9631271184F027059631BD01319631E0
S11303B0BD012E7C004D96327D004D260484F0272D
S11303C003BD013196327E012E7F0057CE0D42BD12
S11303D005077E0314963C810123F77D006626E918
S11303E07C0057CE003C860297317F0032BD091A4B
S11303F0CE0D5020DA7D006227037E0C7ABD050CF9
S11304007F0050964E81022603BD0226CE00B1DF46
S113041033BD04B0CE0DBBBD012BBD02BEBD04B0C7
S1130420CE0DC6BD012B964E271A810127118103DB
S11304302705CE0CF02003CE0DD0BD012B200ACE13
S11304400DD720F6CE0DDB20F18D65CE0DE1BD017B
S11304502BBD02FB8D5ACE0DECBD012BBD03058DCA
S11304604FCE0DF7BD012BDE58DF31BD039E8D400D
S1130470CE0E02BD012BBD02CF8D35CE0E0FBD01B8
S11304802BDE3CDF31BD039E7D00572705CE0CE1FA
S11304902003CE0CF7BD012B8D16CE0E19BD012BFA
S11304A07F003196468B00199732BD039E7E03145C
S11304B0BD050C860297307F004F86049751DE33CA
S11304C0A6009756964A9150260D9649914F2607B5
S11304D08645BD0139200F9656CE01138403BD1005
S11304E0A5A600BD0139BD0134DE337C004F7A007E
S11304F05127069656444420C908DF33A6007A00E3
S11305003026B77C0050398D037E012BDF35CE0EAB
S113051025BD012BDE35397F0026CE00B1C6104F34
S1130520A700085A26FACE00719647D64897565D1A
S113053027098608084A26FC5A26F79656270408EF
S11305404A26FC7D002027047F002039DF6BE6006B
S1130550D7522736C407270AD730D726860297539F
S11305608D62D652C438270B545454D73086019721
S1130570538D51D652C540270A860197308603977A
S1130580538D41D6522A037C0067BD104F840797D0
S11305904BBD104F8407974CBD060C7D004D26EAD9
S11305A0964B9749964C974AD62658CE003E6F00F4
S11305B06F01BD104F8B00197F00319732BD0917B1
S11305C05A26EF39CE00B1BD104F840F975ABD1093
S11305D0A5E600BD104F84039756270556564A26B4
S11305E0FBC50326DFDA539656270559594A26FBDD
S11305F0E7007A003026CD96538103260ED65A0C96
S113060056965624028B049723D724397F004DDF56
S113061035CE00B1964C270508084A26FB964B8137
S1130620032303088004E6009756270554544A26FA
S1130630FBC4032710D74D7D002927097D007026B0
S113064007C1022703DE3539C6FC965627060D5925
S1130650594A26FBE400E70020EB7D006527037E72
S11306600C7A7D004626037E08B67C0070BD104FD0
S1130670840F8A04972D7A00467F002A7F0025CEB6
S11306800D5BBD0507BD08BF81072237972C7D0090
S1130690702625CE0D64BD0507BD08BF972D7D00CE
S11306A02B2609972A7D006126B52000BD013CBD9B
S11306B00139810D26F6962CCE010348BD10A5966E
S11306C02D26037E031497307D002A2704860F9776
S11306D0309649D64AAB00EB01BD08927D002E2727
S11306E0037E07697D002F27037E0769974BD74C4C
S11306F07D00702705BD050C8D1F7C0029BD060CEF
S1130700964D272B7D007027037E084B810226031C
S11307107E07F5CE0D72BD0507964BBD02B9BD032C
S11307200F964CBD02B97D00702701397E07B67D56
S11307300070270C964BD64C7A003026987E088998
S1130740964B9749964C974ABD104F8180230A8651
S113075001BD08DF8603BD09077A003027037E0642
S1130760D17D002A26037E07B67D007027037E080C
S113077089962D97309647D6487D002A2760AB008E
S1130780EB01974BD74CBD08927D002E27037E08C2
S1130790287D002F27037E0828964B9747964C9771
S11307A0487C00258606BD08DF8630BD09077A002F
S11307B03026C2BD05177F004E96219147261CD6D0
S11307C022D14826169623D6244C90498102220B26
S11307D05CD04AC10222048602974E7E03149B2EEB
S11307E0DB2F81072242C107223E9747D74886075D
S11307F0BD08DF20BECE0D7FBD0507860197307F83
S1130800002A7C005B7A00547A00267C0070BD07C5
S113081019CE1010BD0507C66ABD0C56CE0ECABD52
S11308200507BD02CF7E0740CE0D93BD0507966038
S11308304C81032609CE0F7DBD05077E0BBD976055
S11308407D002526037E07B67E07B3CE0DA0BD0529
S113085007964D8102261A7A00267A00547C005BA2
S1130860CE0EB5BD012BCE0ECABD0507BD02CF20ED
S11308700D8101260C7C005CCE0EABBD012B7E03EA
S113088014CE0EB07C005D20F2CE0DADBD05077E0A
S113089007B67F002E7F002F4D2A057A002E2007F1
S11308A0810723037C002E5D2A047A002F39C107B7
S11308B023037C002F39CE0CFBBD05077E03144FA8
S11308C0972BBD013CBD0139812E27F481392207C4
S11308D0812F2303803039CE0EA7BD012B20E09B4E
S11308E0288109231F800A97287F003186019732C7
S11308F0DF35CE0037BD0917CE003ABD0917BD0C50
S11309000BDE3539972839DF35CE00587F00319713
S113091032BD091ADE35390C200D86999031973194
S11309208699903297320DA601993219A701A60033
S1130930993119A700397D006327037E0C7A7F0063
S1130940427F00437F00447F0045CE0E28BD05074B
S1130950BD02FBBD050CBD050C964726037C004477
S1130960810726037C0045964826037C00428107C4
S113097026037C0043DE6B86F7BD10A57D0042276D
S1130980048D5B20028D1A8605BD10A58D13860586
S1130990BD10A57D004327048D4420028D037E03F2
S11309A014A6007D004427014F8D11A6008D0DA6CD
S11309B0007D004527014F8D037E050C1684800CB5
S11309C04949BD012E1784404444BD013117843880
S11309D048BD0131178407BD012E087E013486030A
S11309E097304F8DD77A003026F87E050C7D006451
S11309F027037E0C7A7D00572705CE0E342027CEA0
S1130A000E47BD0507DE58DF31BD039ECE0E5ABD2D
S1130A100507BD0AAC964091582208260F964191CD
S1130A20592309CE0E64BD05077E0314BD104F8102
S1130A30F42308CE0E72BD050720649640913E2231
S1130A4008264C9641913F23467F003E7F003FCECF
S1130A500E7BBD0507CE0ECABD0507D626D75B960D
S1130A60543733109754BD02CF7F0026CE00B18691
S1130A70109730C604A6004625124624010C5A26B7
S1130A80F646A700087A003026E920134620EFDE58
S1130A9040DF31CE003EBD091ACE0E99BD0507DEFA
S1130AA040DF31CE0058BD091A7E03147F00407F19
S1130AB00041BD013CBD0139812F23208D1F7D00E4
S1130AC0272611C6047800417900405A26F79B4135
S1130AD0974120DECE0EA7BD012B20D6397F0027FB
S1130AE081392203840F397C002739CE0EBDBD0520
S1130AF007CE006DC603BD013CA100260D085A2691
S1130B00F5CE0F13BD05077E0BBDCE0F2CBD05071B
S1130B107E03148612913B22217D00682625BD1098
S1130B204F81B023037C0068BD104F81B022199619
S1130B30219747962297487E07B3CE0F45BD0507F8
S1130B407E0314CE101620F5BD104F84079747BDC1
S1130B50104F84079748CE0F50BD050720D97D005C
S1130B6026260139BD104F81B02230CE0069D62629
S1130B7058BD05AEDE69DF317D0057261FCE005813
S1130B80BD091ABD050CBD050CDE69DF31BD039E30
S1130B90CE0EDBBD012BC6FABD0C5639CE003CBDD2
S1130BA0091ACE0EF17E0507CE0F9EBD0507200D56
S1130BB0CE0FAA20F6CE0FB4BD05078D08CE0FC9FF
S1130BC0BD05072006CE0FDBBD0507CE1041BD05D0
S1130BD007BD013CBD013984DF814E27037E013FFF
S1130BE07EE0E3DE6BA600905BD65C585858373342
S1130BF0107D005D270B84BFC60AD721D7227F0052
S1130C004EA7004F975B975C975D39CE0061C6068F
S1130C106D0027026A00085A26F639BD104F840772
S1130C2016BD104F8407D75ACE00717C0020BD0535
S1130C302DE600C407965437331097548680A700D6
S1130C40CE0FFFBD05079656BD02B9BD030F965AD8
S1130C50BD02B97E0314CE0061BD104F373311239A
S1130C600ABD104F84030DA900A700088C00672655
S1130C70E87D006627037F005739CE1016BD0507AF
S1130C807E0314CE101EBD0507CE1029DF33CE001F
S1130C90616D002721DF5EDE33BD050708DF33DE2B
S1130CA05EC603BD01345A26FAA600BD02D1088CE3
S1130CB0006726DD20CADF5EDE3308080808DF335C
S1130CC0DE5E20EA0A537061636520566F796167BE
S1130CD0652056332E32040A53206F72204C3F2075
S1130CE004207570040A4261736520696E20510402
S1130CF0446F636B65640420646E045475626573A9
S1130D0020656D707479040A0A446174653A20049C
S1130D104B6C696E676F6E733A2004596561727328
S1130D203A20045175616472616E743A200453650B
S1130D3063746F723A20040A436F6D6D616E643A96
S1130D402004536869656C647320446F776E2104D2
S1130D50536869656C647320757004436F757273AE
S1130D60653A20045761727020666163746F723A49
S1130D702004426C6F636B656420617420530452D9
S1130D80616D6D6564204B6C696E676F6E20617474
S1130D9020530447616C617879206C696D6974042F
S1130DA0546F727065646F2068697420044F7574A1
S1130DB0206F6620656E65726779042020532E4487
S1130DC06174653A20042020436E64746E3A2004F2
S1130DD059656C6C6F770452656404477265656E7F
S1130DE0042020517564726E743A200420205365E7
S1130DF063746F723A20042020456E657267793AF5
S1130E00200420204B6C696E676F6E733A200420B7
S1130E102053686C64733A20042020546F72706508
S1130E20646F3A20040D0A040A5363616E20666FEE
S1130E30722051044D757374206C6F776572207342
S1130E406869656C647304456E65726779206176C0
S1130E5061696C61626C653A2004456E65726779FC
S1130E60203D2004456E65727920746F6F206C6F8D
S1130E7077044D6973666972652104416C6C206C5A
S1130E806F63616C204B6C696E676F6E7320646571
S1130E907374726F7965642104456E656D7920649D
S1130EA0616D6167656404203F20045374617204BA
S1130EB042617365044B6C696E676F6E040A50611E
S1130EC07373776F72642E2E20044B6C696E676F98
S1130ED06E73206C656674203D200420756E697401
S1130EE0732068697420456E7465727072697365E5
S1130EF0040A4B6C696E676F6E732061747461636E
S1130F006B3A20736869656C647320686F6C6469FC
S1130F106E6704456E7465727072697365206469E6
S1130F2073696E7465677261746573045365717572
S1130F30656E63652061626F72743A2070617373C9
S1130F40776F726404546F6F206561726C79210449
S1130F504D616C66756E6374696F6E21040A075384
S1130F60706163652073746F726D3A2053686965AC
S1130F706C64732064616D6167656421040A0753BE
S1130F8068697020697320667269656420666F728F
S1130F902033726420617474656D70742104074594
S1130FA06E65726779203D2030040754696D6520B1
S1130FB0757021040A07436F6E67726174756C6102
S1130FC074696F6E73210D0A004D697373696F6ED6
S1130FD02061206661696C757265045468652046F9
S1130FE0656465726174696F6E20697320736176DC
S1130FF06564210453757065726E6F766121040A0D
S11310000753757065726E6F766120696E205104A6
S11310104261646C792044616D61676564040A44CB
S1131020657620205374617404456E6704535253EB
S1131030044C525304506873045472700453686C23
S1131040040A506C617920616761696E3F2004373E
S1131050C608B61074484848B810744848791071E6
S11310607910727910737910745A26E633B61071B8
S10410703942
S5030005F7
S1131075DFC14F97C397C47C00C426037C00C3FE1D
S1131085A00AA6004724F0A6013696C3B81072B785
S1131095107296C4B81073B7107332847FDEC139E9
S11310A5363716DFC14FDBC2D7C299C197C1DEC13E
S10610B533323996
S9030100FB
